{
  "_format": "hh-sol-artifact-1",
  "contractName": "ReCommerce",
  "sourceName": "contracts/ReCommerce.sol",
  "abi": [
    {
      "inputs": [],
      "stateMutability": "nonpayable",
      "type": "constructor"
    },
    {
      "anonymous": false,
      "inputs": [
        {
          "indexed": true,
          "internalType": "address",
          "name": "owner",
          "type": "address"
        },
        {
          "indexed": true,
          "internalType": "address",
          "name": "approved",
          "type": "address"
        },
        {
          "indexed": true,
          "internalType": "uint256",
          "name": "tokenId",
          "type": "uint256"
        }
      ],
      "name": "Approval",
      "type": "event"
    },
    {
      "anonymous": false,
      "inputs": [
        {
          "indexed": true,
          "internalType": "address",
          "name": "owner",
          "type": "address"
        },
        {
          "indexed": true,
          "internalType": "address",
          "name": "operator",
          "type": "address"
        },
        {
          "indexed": false,
          "internalType": "bool",
          "name": "approved",
          "type": "bool"
        }
      ],
      "name": "ApprovalForAll",
      "type": "event"
    },
    {
      "anonymous": false,
      "inputs": [
        {
          "indexed": false,
          "internalType": "uint256",
          "name": "_fromTokenId",
          "type": "uint256"
        },
        {
          "indexed": false,
          "internalType": "uint256",
          "name": "_toTokenId",
          "type": "uint256"
        }
      ],
      "name": "BatchMetadataUpdate",
      "type": "event"
    },
    {
      "anonymous": false,
      "inputs": [
        {
          "indexed": false,
          "internalType": "uint256",
          "name": "_tokenId",
          "type": "uint256"
        }
      ],
      "name": "MetadataUpdate",
      "type": "event"
    },
    {
      "anonymous": false,
      "inputs": [
        {
          "indexed": true,
          "internalType": "address",
          "name": "from",
          "type": "address"
        },
        {
          "indexed": true,
          "internalType": "address",
          "name": "to",
          "type": "address"
        },
        {
          "indexed": true,
          "internalType": "uint256",
          "name": "tokenId",
          "type": "uint256"
        }
      ],
      "name": "Transfer",
      "type": "event"
    },
    {
      "inputs": [
        {
          "internalType": "address",
          "name": "to",
          "type": "address"
        },
        {
          "internalType": "uint256",
          "name": "tokenId",
          "type": "uint256"
        }
      ],
      "name": "approve",
      "outputs": [],
      "stateMutability": "nonpayable",
      "type": "function"
    },
    {
      "inputs": [
        {
          "internalType": "address",
          "name": "owner",
          "type": "address"
        }
      ],
      "name": "balanceOf",
      "outputs": [
        {
          "internalType": "uint256",
          "name": "",
          "type": "uint256"
        }
      ],
      "stateMutability": "view",
      "type": "function"
    },
    {
      "inputs": [
        {
          "internalType": "string",
          "name": "tokenURI",
          "type": "string"
        },
        {
          "internalType": "uint256",
          "name": "price",
          "type": "uint256"
        }
      ],
      "name": "createToken",
      "outputs": [
        {
          "internalType": "uint256",
          "name": "",
          "type": "uint256"
        }
      ],
      "stateMutability": "payable",
      "type": "function"
    },
    {
      "inputs": [
        {
          "internalType": "uint256",
          "name": "tokenId",
          "type": "uint256"
        }
      ],
      "name": "executeSale",
      "outputs": [],
      "stateMutability": "payable",
      "type": "function"
    },
    {
      "inputs": [],
      "name": "getAllProducts",
      "outputs": [
        {
          "components": [
            {
              "internalType": "uint256",
              "name": "tokenId",
              "type": "uint256"
            },
            {
              "internalType": "address payable",
              "name": "owner",
              "type": "address"
            },
            {
              "internalType": "address payable",
              "name": "seller",
              "type": "address"
            },
            {
              "internalType": "uint256",
              "name": "price",
              "type": "uint256"
            },
            {
              "internalType": "bool",
              "name": "currentlyListed",
              "type": "bool"
            }
          ],
          "internalType": "struct ReCommerce.ListedToken[]",
          "name": "",
          "type": "tuple[]"
        }
      ],
      "stateMutability": "view",
      "type": "function"
    },
    {
      "inputs": [
        {
          "internalType": "uint256",
          "name": "tokenId",
          "type": "uint256"
        }
      ],
      "name": "getApproved",
      "outputs": [
        {
          "internalType": "address",
          "name": "",
          "type": "address"
        }
      ],
      "stateMutability": "view",
      "type": "function"
    },
    {
      "inputs": [],
      "name": "getCurrentToken",
      "outputs": [
        {
          "internalType": "uint256",
          "name": "",
          "type": "uint256"
        }
      ],
      "stateMutability": "view",
      "type": "function"
    },
    {
      "inputs": [],
      "name": "getLatestIdListedToken",
      "outputs": [
        {
          "components": [
            {
              "internalType": "uint256",
              "name": "tokenId",
              "type": "uint256"
            },
            {
              "internalType": "address payable",
              "name": "owner",
              "type": "address"
            },
            {
              "internalType": "address payable",
              "name": "seller",
              "type": "address"
            },
            {
              "internalType": "uint256",
              "name": "price",
              "type": "uint256"
            },
            {
              "internalType": "bool",
              "name": "currentlyListed",
              "type": "bool"
            }
          ],
          "internalType": "struct ReCommerce.ListedToken",
          "name": "",
          "type": "tuple"
        }
      ],
      "stateMutability": "view",
      "type": "function"
    },
    {
      "inputs": [],
      "name": "getListPrice",
      "outputs": [
        {
          "internalType": "uint256",
          "name": "",
          "type": "uint256"
        }
      ],
      "stateMutability": "view",
      "type": "function"
    },
    {
      "inputs": [
        {
          "internalType": "uint256",
          "name": "tokenId",
          "type": "uint256"
        }
      ],
      "name": "getListedForTokenId",
      "outputs": [
        {
          "components": [
            {
              "internalType": "uint256",
              "name": "tokenId",
              "type": "uint256"
            },
            {
              "internalType": "address payable",
              "name": "owner",
              "type": "address"
            },
            {
              "internalType": "address payable",
              "name": "seller",
              "type": "address"
            },
            {
              "internalType": "uint256",
              "name": "price",
              "type": "uint256"
            },
            {
              "internalType": "bool",
              "name": "currentlyListed",
              "type": "bool"
            }
          ],
          "internalType": "struct ReCommerce.ListedToken",
          "name": "",
          "type": "tuple"
        }
      ],
      "stateMutability": "view",
      "type": "function"
    },
    {
      "inputs": [],
      "name": "getMyProduct",
      "outputs": [
        {
          "components": [
            {
              "internalType": "uint256",
              "name": "tokenId",
              "type": "uint256"
            },
            {
              "internalType": "address payable",
              "name": "owner",
              "type": "address"
            },
            {
              "internalType": "address payable",
              "name": "seller",
              "type": "address"
            },
            {
              "internalType": "uint256",
              "name": "price",
              "type": "uint256"
            },
            {
              "internalType": "bool",
              "name": "currentlyListed",
              "type": "bool"
            }
          ],
          "internalType": "struct ReCommerce.ListedToken[]",
          "name": "",
          "type": "tuple[]"
        }
      ],
      "stateMutability": "view",
      "type": "function"
    },
    {
      "inputs": [
        {
          "internalType": "address",
          "name": "owner",
          "type": "address"
        },
        {
          "internalType": "address",
          "name": "operator",
          "type": "address"
        }
      ],
      "name": "isApprovedForAll",
      "outputs": [
        {
          "internalType": "bool",
          "name": "",
          "type": "bool"
        }
      ],
      "stateMutability": "view",
      "type": "function"
    },
    {
      "inputs": [],
      "name": "name",
      "outputs": [
        {
          "internalType": "string",
          "name": "",
          "type": "string"
        }
      ],
      "stateMutability": "view",
      "type": "function"
    },
    {
      "inputs": [
        {
          "internalType": "uint256",
          "name": "tokenId",
          "type": "uint256"
        }
      ],
      "name": "ownerOf",
      "outputs": [
        {
          "internalType": "address",
          "name": "",
          "type": "address"
        }
      ],
      "stateMutability": "view",
      "type": "function"
    },
    {
      "inputs": [
        {
          "internalType": "address",
          "name": "from",
          "type": "address"
        },
        {
          "internalType": "address",
          "name": "to",
          "type": "address"
        },
        {
          "internalType": "uint256",
          "name": "tokenId",
          "type": "uint256"
        }
      ],
      "name": "safeTransferFrom",
      "outputs": [],
      "stateMutability": "nonpayable",
      "type": "function"
    },
    {
      "inputs": [
        {
          "internalType": "address",
          "name": "from",
          "type": "address"
        },
        {
          "internalType": "address",
          "name": "to",
          "type": "address"
        },
        {
          "internalType": "uint256",
          "name": "tokenId",
          "type": "uint256"
        },
        {
          "internalType": "bytes",
          "name": "data",
          "type": "bytes"
        }
      ],
      "name": "safeTransferFrom",
      "outputs": [],
      "stateMutability": "nonpayable",
      "type": "function"
    },
    {
      "inputs": [
        {
          "internalType": "address",
          "name": "operator",
          "type": "address"
        },
        {
          "internalType": "bool",
          "name": "approved",
          "type": "bool"
        }
      ],
      "name": "setApprovalForAll",
      "outputs": [],
      "stateMutability": "nonpayable",
      "type": "function"
    },
    {
      "inputs": [
        {
          "internalType": "bytes4",
          "name": "interfaceId",
          "type": "bytes4"
        }
      ],
      "name": "supportsInterface",
      "outputs": [
        {
          "internalType": "bool",
          "name": "",
          "type": "bool"
        }
      ],
      "stateMutability": "view",
      "type": "function"
    },
    {
      "inputs": [],
      "name": "symbol",
      "outputs": [
        {
          "internalType": "string",
          "name": "",
          "type": "string"
        }
      ],
      "stateMutability": "view",
      "type": "function"
    },
    {
      "inputs": [
        {
          "internalType": "uint256",
          "name": "tokenId",
          "type": "uint256"
        }
      ],
      "name": "tokenURI",
      "outputs": [
        {
          "internalType": "string",
          "name": "",
          "type": "string"
        }
      ],
      "stateMutability": "view",
      "type": "function"
    },
    {
      "inputs": [
        {
          "internalType": "address",
          "name": "from",
          "type": "address"
        },
        {
          "internalType": "address",
          "name": "to",
          "type": "address"
        },
        {
          "internalType": "uint256",
          "name": "tokenId",
          "type": "uint256"
        }
      ],
      "name": "transferFrom",
      "outputs": [],
      "stateMutability": "nonpayable",
      "type": "function"
    },
    {
      "inputs": [
        {
          "internalType": "uint256",
          "name": "_listPrice",
          "type": "uint256"
        }
      ],
      "name": "updateListPrice",
      "outputs": [],
      "stateMutability": "payable",
      "type": "function"
    }
  ],
  "bytecode": "0x6080604052662386f26fc10000600a553480156200001c57600080fd5b506040518060400160405280600e81526020016d4e46544d61726b6574706c61636560901b815250604051806040016040528060048152602001634e46544d60e01b815250816000908162000072919062000141565b50600162000081828262000141565b5050600780546001600160a01b03191633179055506200020d565b634e487b7160e01b600052604160045260246000fd5b600181811c90821680620000c757607f821691505b602082108103620000e857634e487b7160e01b600052602260045260246000fd5b50919050565b601f8211156200013c57600081815260208120601f850160051c81016020861015620001175750805b601f850160051c820191505b81811015620001385782815560010162000123565b5050505b505050565b81516001600160401b038111156200015d576200015d6200009c565b62000175816200016e8454620000b2565b84620000ee565b602080601f831160018114620001ad5760008415620001945750858301515b600019600386901b1c1916600185901b17855562000138565b600085815260208120601f198616915b82811015620001de57888601518255948401946001909101908401620001bd565b5085821015620001fd5787850151600019600388901b60f8161c191681555b5050505050600190811b01905550565b6120eb806200021d6000396000f3fe6080604052600436106101355760003560e01c806395d89b41116100ab578063b88d4fde1161006f578063b88d4fde14610349578063c322579c14610369578063c87b56dd1461037c578063e985e9c51461039c578063ef2d1746146103e5578063f9de823e146103fa57600080fd5b806395d89b41146102bf57806398c3df16146102d45780639b1225c414610301578063a22cb46514610314578063aa3222e51461033457600080fd5b806323b872dd116100fd57806323b872dd1461020d57806342842e0e1461022d5780636352211e1461024d57806368f1945f1461026d57806370a082311461028c57806372b3b620146102ac57600080fd5b806301ffc9a71461013a57806302ee3a521461016f57806306fdde0314610191578063081812fc146101b3578063095ea7b3146101eb575b600080fd5b34801561014657600080fd5b5061015a610155366004611a06565b61040f565b60405190151581526020015b60405180910390f35b34801561017b57600080fd5b5061018461043a565b6040516101669190611a63565b34801561019d57600080fd5b506101a6610565565b6040516101669190611b01565b3480156101bf57600080fd5b506101d36101ce366004611b14565b6105f7565b6040516001600160a01b039091168152602001610166565b3480156101f757600080fd5b5061020b610206366004611b49565b61061e565b005b34801561021957600080fd5b5061020b610228366004611b73565b610738565b34801561023957600080fd5b5061020b610248366004611b73565b610769565b34801561025957600080fd5b506101d3610268366004611b14565b610784565b34801561027957600080fd5b50600a545b604051908152602001610166565b34801561029857600080fd5b5061027e6102a7366004611baf565b6107e4565b61027e6102ba366004611c56565b61086a565b3480156102cb57600080fd5b506101a6610959565b3480156102e057600080fd5b506102f46102ef366004611b14565b610968565b6040516101669190611caf565b61020b61030f366004611b14565b6109d2565b34801561032057600080fd5b5061020b61032f366004611cbd565b610b30565b34801561034057600080fd5b506102f4610b3f565b34801561035557600080fd5b5061020b610364366004611cf9565b610bb6565b61020b610377366004611b14565b610be8565b34801561038857600080fd5b506101a6610397366004611b14565b610c57565b3480156103a857600080fd5b5061015a6103b7366004611d75565b6001600160a01b03918216600090815260056020908152604080832093909416825291909152205460ff1690565b3480156103f157600080fd5b5061027e610d67565b34801561040657600080fd5b50610184610d77565b60006001600160e01b03198216632483248360e11b1480610434575061043482610fa0565b92915050565b6060600061044760085490565b905060008167ffffffffffffffff81111561046457610464611bca565b60405190808252806020026020018201604052801561049d57816020015b61048a6119c2565b8152602001906001900390816104825790505b5090506000805b8381101561055c5760006104b9826001611dbe565b6000818152600b6020908152604091829020825160a0810184528154815260018201546001600160a01b039081169382019390935260028201549092169282019290925260038201546060820152600482015460ff16151560808201528651929350909186908690811061052f5761052f611dd1565b6020908102919091010152610545600185611dbe565b93505050808061055490611de7565b9150506104a4565b50909392505050565b60606000805461057490611e00565b80601f01602080910402602001604051908101604052809291908181526020018280546105a090611e00565b80156105ed5780601f106105c2576101008083540402835291602001916105ed565b820191906000526020600020905b8154815290600101906020018083116105d057829003601f168201915b5050505050905090565b600061060282610ff0565b506000908152600460205260409020546001600160a01b031690565b600061062982610784565b9050806001600160a01b0316836001600160a01b03160361069b5760405162461bcd60e51b815260206004820152602160248201527f4552433732313a20617070726f76616c20746f2063757272656e74206f776e656044820152603960f91b60648201526084015b60405180910390fd5b336001600160a01b03821614806106b757506106b781336103b7565b6107295760405162461bcd60e51b815260206004820152603d60248201527f4552433732313a20617070726f76652063616c6c6572206973206e6f7420746f60448201527f6b656e206f776e6572206f7220617070726f76656420666f7220616c6c0000006064820152608401610692565b6107338383611052565b505050565b61074233826110c0565b61075e5760405162461bcd60e51b815260040161069290611e3a565b61073383838361113e565b61073383838360405180602001604052806000815250610bb6565b6000818152600260205260408120546001600160a01b0316806104345760405162461bcd60e51b8152602060048201526018602482015277115490cdcc8c4e881a5b9d985b1a59081d1bdad95b88125160421b6044820152606401610692565b60006001600160a01b03821661084e5760405162461bcd60e51b815260206004820152602960248201527f4552433732313a2061646472657373207a65726f206973206e6f7420612076616044820152683634b21037bbb732b960b91b6064820152608401610692565b506001600160a01b031660009081526003602052604090205490565b6000600a5434146108bd5760405162461bcd60e51b815260206004820152601960248201527f53656e6420656e6f75676820657468657220746f206c697374000000000000006044820152606401610692565b600082116109195760405162461bcd60e51b815260206004820152602360248201527f4d616b65207375726520746865207072696365206973206e6f74206e6567617460448201526269766560e81b6064820152608401610692565b610927600880546001019055565b600061093260085490565b905061093e33826112a2565b61094881856112bc565b6109528184611387565b9392505050565b60606001805461057490611e00565b6109706119c2565b506000908152600b6020908152604091829020825160a0810184528154815260018201546001600160a01b03908116938201939093526002820154909216928201929092526003820154606082015260049091015460ff161515608082015290565b6000818152600b6020526040902060030154348114610a595760405162461bcd60e51b815260206004820152603f60248201527f506c65617365207375626d6974207468652061736b696e67207072696365206660448201527f6f7220746865204e465420696e206f7264657220746f207075726368617365006064820152608401610692565b6000828152600b602052604090206002810180546004909201805460ff191660011790556001600160a01b03198216331790556001600160a01b0316610aa3600980546001019055565b610aae30338561113e565b610ab8308461061e565b600754600a546040516001600160a01b039092169181156108fc0291906000818181858888f19350505050158015610af4573d6000803e3d6000fd5b506040516001600160a01b038216903480156108fc02916000818181858888f19350505050158015610b2a573d6000803e3d6000fd5b50505050565b610b3b338383611424565b5050565b610b476119c2565b6000610b5260085490565b6000908152600b6020908152604091829020825160a0810184528154815260018201546001600160a01b03908116938201939093526002820154909216928201929092526003820154606082015260049091015460ff161515608082015292915050565b610bc033836110c0565b610bdc5760405162461bcd60e51b815260040161069290611e3a565b610b2a848484846114f2565b6007546001600160a01b03163314610c525760405162461bcd60e51b815260206004820152602760248201527f4f6e6c79206f776e65722063616e2075706461746520746865206c697374696e6044820152666720707269636560c81b6064820152608401610692565b600a55565b6060610c6282610ff0565b60008281526006602052604081208054610c7b90611e00565b80601f0160208091040260200160405190810160405280929190818152602001828054610ca790611e00565b8015610cf45780601f10610cc957610100808354040283529160200191610cf4565b820191906000526020600020905b815481529060010190602001808311610cd757829003601f168201915b505050505090506000610d1260408051602081019091526000815290565b90508051600003610d24575092915050565b815115610d56578082604051602001610d3e929190611e87565b60405160208183030381529060405292505050919050565b610d5f84611525565b949350505050565b6000610d7260085490565b905090565b60606000610d8460085490565b905060008060005b83811015610e1c5733600b6000610da4846001611dbe565b81526020810191909152604001600020600101546001600160a01b03161480610df7575033600b6000610dd8846001611dbe565b81526020810191909152604001600020600201546001600160a01b0316145b15610e0a57610e07600184611dbe565b92505b80610e1481611de7565b915050610d8c565b5060008267ffffffffffffffff811115610e3857610e38611bca565b604051908082528060200260200182016040528015610e7157816020015b610e5e6119c2565b815260200190600190039081610e565790505b50905060005b84811015610f975733600b6000610e8f846001611dbe565b81526020810191909152604001600020600101546001600160a01b03161480610ee2575033600b6000610ec3846001611dbe565b81526020810191909152604001600020600201546001600160a01b0316145b15610f85576000610ef4826001611dbe565b6000818152600b6020908152604091829020825160a0810184528154815260018201546001600160a01b039081169382019390935260028201549092169282019290925260038201546060820152600482015460ff161515608082015285519293509091859087908110610f6a57610f6a611dd1565b6020908102919091010152610f80600186611dbe565b945050505b80610f8f81611de7565b915050610e77565b50949350505050565b60006001600160e01b031982166380ac58cd60e01b1480610fd157506001600160e01b03198216635b5e139f60e01b145b8061043457506301ffc9a760e01b6001600160e01b0319831614610434565b6000818152600260205260409020546001600160a01b031661104f5760405162461bcd60e51b8152602060048201526018602482015277115490cdcc8c4e881a5b9d985b1a59081d1bdad95b88125160421b6044820152606401610692565b50565b600081815260046020526040902080546001600160a01b0319166001600160a01b038416908117909155819061108782610784565b6001600160a01b03167f8c5be1e5ebec7d5bd14f71427d1e84f3dd0314c0f7b2291e5b200ac8c7c3b92560405160405180910390a45050565b6000806110cc83610784565b9050806001600160a01b0316846001600160a01b0316148061111357506001600160a01b0380821660009081526005602090815260408083209388168352929052205460ff165b80610d5f5750836001600160a01b031661112c846105f7565b6001600160a01b031614949350505050565b826001600160a01b031661115182610784565b6001600160a01b0316146111775760405162461bcd60e51b815260040161069290611eb6565b6001600160a01b0382166111d95760405162461bcd60e51b8152602060048201526024808201527f4552433732313a207472616e7366657220746f20746865207a65726f206164646044820152637265737360e01b6064820152608401610692565b826001600160a01b03166111ec82610784565b6001600160a01b0316146112125760405162461bcd60e51b815260040161069290611eb6565b600081815260046020908152604080832080546001600160a01b03199081169091556001600160a01b0387811680865260038552838620805460001901905590871680865283862080546001019055868652600290945282852080549092168417909155905184937fddf252ad1be2c89b69c2b068fc378daa952ba7f163c4a11628f55a4df523b3ef91a4505050565b610b3b828260405180602001604052806000815250611598565b6000828152600260205260409020546001600160a01b03166113375760405162461bcd60e51b815260206004820152602e60248201527f45524337323155524953746f726167653a2055524920736574206f66206e6f6e60448201526d32bc34b9ba32b73a103a37b5b2b760911b6064820152608401610692565b600082815260066020526040902061134f8282611f49565b506040518281527ff8e1a15aba9398e019f0b49df1a4fde98ee17ae345cb5f6b5e2c27f5033e8ce79060200160405180910390a15050565b6040805160a081018252838152306020808301828152338486018181526060860188815260016080880181815260008c8152600b9097529890952096518755925193860180546001600160a01b039586166001600160a01b03199182161790915590516002870180549190951691161790925551600384015592516004909201805492151560ff1990931692909217909155610b3b91908461113e565b816001600160a01b0316836001600160a01b0316036114855760405162461bcd60e51b815260206004820152601960248201527f4552433732313a20617070726f766520746f2063616c6c6572000000000000006044820152606401610692565b6001600160a01b03838116600081815260056020908152604080832094871680845294825291829020805460ff191686151590811790915591519182527f17307eab39ab6107e8899845ad3d59bd9653f200f220920489ca2b5937696c31910160405180910390a3505050565b6114fd84848461113e565b611509848484846115cb565b610b2a5760405162461bcd60e51b815260040161069290612009565b606061153082610ff0565b600061154760408051602081019091526000815290565b905060008151116115675760405180602001604052806000815250610952565b80611571846116cc565b604051602001611582929190611e87565b6040516020818303038152906040529392505050565b6115a2838361175f565b6115af60008484846115cb565b6107335760405162461bcd60e51b815260040161069290612009565b60006001600160a01b0384163b156116c157604051630a85bd0160e11b81526001600160a01b0385169063150b7a029061160f90339089908890889060040161205b565b6020604051808303816000875af192505050801561164a575060408051601f3d908101601f1916820190925261164791810190612098565b60015b6116a7573d808015611678576040519150601f19603f3d011682016040523d82523d6000602084013e61167d565b606091505b50805160000361169f5760405162461bcd60e51b815260040161069290612009565b805181602001fd5b6001600160e01b031916630a85bd0160e11b149050610d5f565b506001949350505050565b606060006116d9836118ea565b600101905060008167ffffffffffffffff8111156116f9576116f9611bca565b6040519080825280601f01601f191660200182016040528015611723576020820181803683370190505b5090508181016020015b600019016f181899199a1a9b1b9c1cb0b131b232b360811b600a86061a8153600a850494508461172d57509392505050565b6001600160a01b0382166117b55760405162461bcd60e51b815260206004820181905260248201527f4552433732313a206d696e7420746f20746865207a65726f20616464726573736044820152606401610692565b6000818152600260205260409020546001600160a01b03161561181a5760405162461bcd60e51b815260206004820152601c60248201527f4552433732313a20746f6b656e20616c7265616479206d696e746564000000006044820152606401610692565b6000818152600260205260409020546001600160a01b03161561187f5760405162461bcd60e51b815260206004820152601c60248201527f4552433732313a20746f6b656e20616c7265616479206d696e746564000000006044820152606401610692565b6001600160a01b038216600081815260036020908152604080832080546001019055848352600290915280822080546001600160a01b0319168417905551839291907fddf252ad1be2c89b69c2b068fc378daa952ba7f163c4a11628f55a4df523b3ef908290a45050565b60008072184f03e93ff9f4daa797ed6e38ed64bf6a1f0160401b83106119295772184f03e93ff9f4daa797ed6e38ed64bf6a1f0160401b830492506040015b6d04ee2d6d415b85acef81000000008310611955576d04ee2d6d415b85acef8100000000830492506020015b662386f26fc10000831061197357662386f26fc10000830492506010015b6305f5e100831061198b576305f5e100830492506008015b612710831061199f57612710830492506004015b606483106119b1576064830492506002015b600a83106104345760010192915050565b6040805160a08101825260008082526020820181905291810182905260608101829052608081019190915290565b6001600160e01b03198116811461104f57600080fd5b600060208284031215611a1857600080fd5b8135610952816119f0565b805182526020808201516001600160a01b039081169184019190915260408083015190911690830152606080820151908301526080908101511515910152565b6020808252825182820181905260009190848201906040850190845b81811015611aa557611a92838551611a23565b9284019260a09290920191600101611a7f565b50909695505050505050565b60005b83811015611acc578181015183820152602001611ab4565b50506000910152565b60008151808452611aed816020860160208601611ab1565b601f01601f19169290920160200192915050565b6020815260006109526020830184611ad5565b600060208284031215611b2657600080fd5b5035919050565b80356001600160a01b0381168114611b4457600080fd5b919050565b60008060408385031215611b5c57600080fd5b611b6583611b2d565b946020939093013593505050565b600080600060608486031215611b8857600080fd5b611b9184611b2d565b9250611b9f60208501611b2d565b9150604084013590509250925092565b600060208284031215611bc157600080fd5b61095282611b2d565b634e487b7160e01b600052604160045260246000fd5b600067ffffffffffffffff80841115611bfb57611bfb611bca565b604051601f8501601f19908116603f01168101908282118183101715611c2357611c23611bca565b81604052809350858152868686011115611c3c57600080fd5b858560208301376000602087830101525050509392505050565b60008060408385031215611c6957600080fd5b823567ffffffffffffffff811115611c8057600080fd5b8301601f81018513611c9157600080fd5b611ca085823560208401611be0565b95602094909401359450505050565b60a081016104348284611a23565b60008060408385031215611cd057600080fd5b611cd983611b2d565b915060208301358015158114611cee57600080fd5b809150509250929050565b60008060008060808587031215611d0f57600080fd5b611d1885611b2d565b9350611d2660208601611b2d565b925060408501359150606085013567ffffffffffffffff811115611d4957600080fd5b8501601f81018713611d5a57600080fd5b611d6987823560208401611be0565b91505092959194509250565b60008060408385031215611d8857600080fd5b611d9183611b2d565b9150611d9f60208401611b2d565b90509250929050565b634e487b7160e01b600052601160045260246000fd5b8082018082111561043457610434611da8565b634e487b7160e01b600052603260045260246000fd5b600060018201611df957611df9611da8565b5060010190565b600181811c90821680611e1457607f821691505b602082108103611e3457634e487b7160e01b600052602260045260246000fd5b50919050565b6020808252602d908201527f4552433732313a2063616c6c6572206973206e6f7420746f6b656e206f776e6560408201526c1c881bdc88185c1c1c9bdd9959609a1b606082015260800190565b60008351611e99818460208801611ab1565b835190830190611ead818360208801611ab1565b01949350505050565b60208082526025908201527f4552433732313a207472616e736665722066726f6d20696e636f72726563742060408201526437bbb732b960d91b606082015260800190565b601f82111561073357600081815260208120601f850160051c81016020861015611f225750805b601f850160051c820191505b81811015611f4157828155600101611f2e565b505050505050565b815167ffffffffffffffff811115611f6357611f63611bca565b611f7781611f718454611e00565b84611efb565b602080601f831160018114611fac5760008415611f945750858301515b600019600386901b1c1916600185901b178555611f41565b600085815260208120601f198616915b82811015611fdb57888601518255948401946001909101908401611fbc565b5085821015611ff95787850151600019600388901b60f8161c191681555b5050505050600190811b01905550565b60208082526032908201527f4552433732313a207472616e7366657220746f206e6f6e20455243373231526560408201527131b2b4bb32b91034b6b83632b6b2b73a32b960711b606082015260800190565b6001600160a01b038581168252841660208201526040810183905260806060820181905260009061208e90830184611ad5565b9695505050505050565b6000602082840312156120aa57600080fd5b8151610952816119f056fea2646970667358221220b9938a4baa612bba55c92ac3c59959ff3119048428e332cd316b826756b201da64736f6c63430008120033",
  "linkReferences": {},
  "deployedLinkReferences": {}
}